:020000040800F2
:1000000088D60420C50200080DC50008AF510008BD
:1000100021B90008830B0008B9E9000800000000BE
:100020000000000000000000000000004DD30008A8
:10003000390F0008000000002DC9000879D500081C
:10004000DF020008DF020008DF020008DF0200080C
:10005000DF020008DF020008DF020008DF020008FC
:10006000DF020008DF020008DF020008DF020008EC
:10007000DF020008DF020008DF020008DF020008DC
:10008000DF020008DF020008DF020008DF020008CC
:10009000DF020008DF020008DF020008DF020008BC
:1000A000DF020008DF020008DF020008DF020008AC
:1000B000DF020008D5D50008DF020008DF020008D3
:1000C000DF020008DF020008DF020008DF0200088C
:1000D000DF020008ADE90008DF020008DF020008C7
:1000E000DF020008DF020008DF020008DF0200086C
:1000F000DF020008DF020008DF020008DF0200085C
:10010000DF020008DF020008DF020008DF0200084B
:10011000DF020008DF020008DF020008DF0200083B
:10012000DF020008DF020008DF020008DF0200082B
:10013000DF020008DF020008DF020008DF0200081B
:10014000DF020008DF020008DF020008DF0200080B
:10015000DF020008DF020008DF020008DF020008FB
:10016000DF020008DF020008DF020008DF020008EB
:10017000DF020008DF020008DF02000800000000C4
:10018000DF020008DF020008DF020008DF020008CB
:10019000DF020008DF020008DF020008DF020008BB
:1001A000DF020008DF020008DF020008DF020008AB
:1001B000DF020008DF020008DF020008DF0200089B
:1001C000DF020008DF02000800000000DF02000874
:1001D000DF020008DF020008DF020008DF0200087B
:1001E000DF020008DF020008DF020008DF0200086B
:1001F000DF020008DF02000800F002F800F04AF811
:100200000AA090E8000C82448344AAF10107DA4571
:1002100001D100F03FF8AFF2090EBAE80F0013F079
:10022000010F18BFFB1A43F001031847C07001000B
:10023000E0700100103A24BF78C878C1FAD852079C
:1002400024BF30C830C144BF04680C607047000050
:100250000023002400250026103A28BF78C1FBD8CF
:10026000520728BF30C148BF0B607047642900F0B7
:10027000F780782900F03081632900F00D8373291D
:1002800000F01283002070471FB512F01AF91FBD4D
:1002900010B510BD00F09CFB1146FFF7F5FF11F003
:1002A0008FF900F0BAFB03B4FFF7F2FF03BC0EF0C6
:1002B000A8FD000030BF72B6704762B6704780F389
:1002C000088870470948804709480047FEE7FEE76D
:1002D000FEE7FEE7FEE7FEE7FEE7FEE7FEE7FEE7F6
:1002E00004480549054A064B704700007DD50008C3
:1002F000F901000888D0042088D6042088D2042080
:1003000088D20420704753EA020C00F069802DE97E
:10031000F04B4FF00006002B1FBFB3FA83F503FA32
:1003200005F424FA05F65E4012BF1643B2FA82F5D0
:1003300002FA05F4C5F120051EBF22FA05FC44EAC5
:100340000C04203556EA044C4FEA144418BF641CD0
:100350004FF000084FF00009904271EB030C39D3C5
:10036000002919BFB1FA81F701FA07F6B0FA80F750
:1003700000FA07F6C7F120071EBF20FA07FC46EA7D
:100380000C062037B6FBF4FCA7EB0507103F07F07F
:100390001F0BCBF120060CFA0BFB2CFA06F644BF20
:1003A000B3460026202FA4BF5E464FF0000B5BEA49
:1003B000060C08BF4FF0010B19EB0B09ABFB027CDD
:1003C00048EB0608C01B06FB02CC0BFB03CC71EB11
:1003D0000C01C1E70B46024641464846BDE8F08B9A
:1003E00013B54FF000004FF00001AFF30080BDE8FF
:1003F0001C4070470FB4044910B503AA029800F0DE
:1004000057FA10BC5DF814FB1000022070B50C46C2
:100410000546012A05D02878800600D5EA69002320
:1004200002E0012305E05B1C934202D2E05C00285D
:10043000F9D1A869E618C01AA861286A1844286288
:100440002846AFF3008004E0D5E9012114F8010B40
:100450009047B442F8D32846AFF3008070BD000047
:100460002DE9F0410646002410687529314616A58D
:1004700010D0AFF30080002802DA404213A507E055
:1004800031688A0701D512A502E0490704D511A5F4
:10049000012401E0AFF3008000210A2206F12407C5
:1004A00009E0B0FBF2FCB0FBF2F302FB1C003030C1
:1004B00078541846491C0028F3D123462A46304672
:1004C000BDE8F04100F085B9000000002D000000FB
:1004D0002B0000002000000070B504460D462146A8
:1004E0001068AFF300802188090502D50F4A7A44CD
:1004F00002E00E4A7A440E32002104F1240305E0A2
:1005000000F00F060009965D5E54491C0028F7D1E3
:1005100020780023000704D5702D02D009B10223F2
:1005200011322046BDE8704000F053B9666C0100FE
:100530002DE9F047884606460020DFF8DC90F944B4
:1005400030623046F1688847002862D0252806D0FE
:10055000D6E901219047306A401C3062F1E700255E
:100560004F463046F16888472028044607DB312C87
:1005700005D2381910F8200C08B10543F1E7A80797
:1005800001D525F004056C2C0AD0682C08D04C2C21
:1005900038D06A2C34D0742C34D07A2C32D015E078
:1005A000F168274630468847B842044609D16C2F87
:1005B00026D04FF48060F1680543304688470446F2
:1005C00004E06C2F1AD04FF4807005430CB3A4F1F3
:1005D0004100192802D8203445F4006542462146DE
:1005E000304635604546FFF741FE80B101280BD00B
:1005F000ED1D25F0070000F10808A2E74020E4E720
:100600008020D8E70020D6E705F1040899E72046C6
:100610009EE7306ABDE8F0873E6C010040EA0103C6
:10062000024630B59B0710D14FF0013400E008C2FC
:1006300008C91D1B9D4315EAC41FF8D013F0FF0124
:1006400002F8011B0DD01B0AF8E711F8013B002B43
:1006500002F8013B05D011F8013B002B02F8013BE9
:10066000F3D130BD421E12F8013F002BFBD111F82F
:10067000013B002B02F8013BF9D17047032A40F2FD
:10068000308010F0030C00F0158011F8013BBCF134
:10069000020F624498BF11F801CB00F8013B38BF4C
:1006A00011F8013BA2F1040298BF00F801CB38BF5A
:1006B00000F8013B11F0030300F00C81083AC0F090
:1006C000088051F8043B083A51F804CBA0E8081020
:1006D000F5E7121D5CBF51F8043B40F8043BAFF353
:1006E0000080D20724BF11F8013B11F801CB48BFAD
:1006F00011F8012B24BF00F8013B00F801CB48BFE3
:1007000000F8012B70474FF000020429C0F012805E
:1007100010F0030C00F01281CCF1040CBCF1020FBC
:1007200018BF00F8012BA8BF20F8022BA1EB0C0189
:1007300000F004B95FEAC17C24BF00F8012B00F887
:10074000012B48BF00F8012B704700004FF0013C1F
:1007500050F8042B51F8043B9A4215D1A2EB0C033C
:10076000934313EACC130BD150F8042B51F8043BFC
:100770009A4209D1A2EB0C03934313EACC13E7D0BE
:100780004FF00000704700BFD01A01BAB1FA81F1F2
:1007900001F0180122FA01F0CB40C1F12001DBB2D7
:1007A000C0B2C01A2CFA01F3D11A914311EAC31155
:1007B000E6D17047704770477047704710B500F03A
:1007C000E3F8006810BD10B5044600F0DDF80460E1
:1007D00010BD2DE9F0470D4699469246044600F1BA
:1007E00024080168880604D5E06921F01001216021
:1007F00000E00120A84201DD471B00E00027A169BD
:100800007A1902EB0900081AA0612078C00602D408
:100810002046AFF30080002608E0D4E901211AF851
:1008200006009047206A401C761C20624E45F4DB8F
:100830002078C0060AD52046AFF3008006E0D4E950
:10084000012130209047206A401C2062381EA7F109
:100850000107F4DC07E0D4E9012118F8050090470E
:10086000206A401C2062281EA5F10105F3DC204609
:10087000AFF300802078000602D50220BDE8F087A3
:100880000120FBE710B5436913B1AFF3008001E02D
:10089000FFF7BCFD012010BD127800F124010A70A1
:1008A00000224A700122EDE711684FF0FF32E9E7BC
:1008B000074B70B50D467B4400F06FF804462846A0
:1008C00000F07EF810B14FF0FF3070BD204670BDD3
:1008D000CB05010010B5203AC0F00B80B1E81850EC
:1008E000203AA0E81850B1E81850A0E81850BFF41A
:1008F000F5AF5FEA027C24BFB1E81850A0E81850B9
:1009000044BF18C918C0BDE810405FEA827C24BF0C
:1009100051F8043B40F8043B08BF7047D20728BF9A
:1009200031F8023B48BF11F8012B28BF20F8023BE9
:1009300048BF00F8012B70474FF0000200B5134686
:1009400094469646203922BFA0E80C50A0E80C50EF
:10095000B1F12001BFF4F7AF090728BFA0E80C50A0
:1009600048BF0CC05DF804EB890028BF40F8042B99
:1009700008BF704748BF20F8022B11F0804F18BF06
:1009800000F8012B704700000048704724D0042075
:1009900001694A1C02610878704700B58FB0CDE943
:1009A00001310021059105497944CDE90310114633
:1009B0006846FFF7BDFD0FB000BD0000E5FFFFFF7B
:1009C000007B00F0800070470048704724D004206E
:1009D0007546FFF7F9FFAE4605006946534620F01D
:1009E0000700854618B020B5FFF77AFCBDE8204027
:1009F0004FF000064FF000074FF000084FF0000BDB
:100A000021F00701AC46ACE8C009ACE8C009ACE88D
:100A1000C009ACE8C0098D46704710B50446AFF375
:100A200000802046BDE81040FFF73DBC04F0C0BB8D
:100A30002DE9F0470E0001464FF0000004461ABFB2
:100A400001EB06084FF0A009BDE8F0870702A8EB0C
:100A50000400451E04F084FC280A09EB4000C0B2E3
:100A600004F042FC04F0CCFCE8B204F03DFC04F0DD
:100A7000C7FC04F075FCA12004F036FC04F0C0FCB7
:100A8000002004F0BDFB054604F092FC611CE8194F
:100A9000CCB2A642DAD8BDE8F08710B5044604F01F
:100AA0005FFC200AA02101EB4000C0B204F01CFC56
:100AB00004F0A6FCE0B204F017FC04F0A1FC04F082
:100AC0004FFCA12004F010FC04F09AFC002004F07C
:100AD00097FB044604F06CFC204610BD2DE9F0475E
:100AE00016000F4680464FF0000414BF4FF0A00AD6
:100AF000BDE8F08708EB0405E00027FA00F000F0FD
:100B0000FF0904F02DFC280A0AEB4000C0B204F0F3
:100B1000EBFB04F075FCE8B204F0E6FB04F070FCBB
:100B2000484604F0E1FB04F06BFC04F041FC0A20B1
:100B30000EF0EAFA601CC4B2A642DBD8BDE8F0872A
:100B400070B50D46044604F00BFC200AA02202EB0F
:100B50004000C0B204F0C8FB04F052FCE0B204F064
:100B6000C3FB04F04DFC284604F0BEFB04F048FC37
:100B700004F01EFCBDE870400A200EF0C5BA0BF070
:100B80006DBEFEE713484DF804ED87B0016841F0F3
:100B900080010160016801F080010591016841F464
:100BA000807101600068694600F480700590402003
:100BB000009001200190029003200390064801F06C
:100BC000C7FB082000900548694601F0C1FB07B04B
:100BD0005DF804FB30380240001C02400020024057
:100BE0002DE9F0413C4F80460024386820F0C000D9
:100BF0003860386838601E200EF0ACFA374E002599
:100C000000224021304601F0CEFC02200EF0A2FA74
:100C100001223046402101F0C6FC60060821040E86
:100C2000384601F0B7FC00281CBF601CC4B2681C29
:100C3000C5B2082DE4D3B8F1000F4FF000024FF019
:100C40004001304624D001F0AEFC386820F0C000EE
:100C50003860386840F04000386002200EF07AFAC0
:100C600000223846082101F09EFC02200EF072FAA4
:100C700001223046402101F096FC02200EF06AFA73
:100C800000223046402101F08EFC2046BDE8F08174
:100C900001F089FC386820F0C0003860386840F006
:100CA0004000386002200EF055FA01223846082133
:100CB00001F079FC02200EF04DFA0122304640216D
:100CC00001F071FC02200EF045FA0022304640216E
:100CD00001F069FCD9E7000000200240001C02403E
:100CE0002DE9F0411C4F0546386820F0C0003860FF
:100CF000386840F040003860184E002240213046ED
:100D000001F051FC02200EF025FA002415F0800FAE
:100D100005D001223846082101F045FC04E00022FC
:100D20003846082101F03FFC68060122050E3046D6
:100D3000402101F038FC02200EF00CFA002230466F
:100D4000402101F030FC02200EF004FA601CC4B215
:100D5000082CDBD3BDE8F08100200240001C0240DB
:100D600070B5134C206820F0C0002060206840F06F
:100D70004000206001222046082101F014FC0D4DA6
:100D800001224021284601F00EFC1E200EF0E2F95F
:100D900000222046082101F006FC02200EF0DAF9BC
:100DA0002846BDE870400022402101F0FCBB000055
:100DB00000200240001C024010B5104C206820F0BA
:100DC000C0002060206840F0400020600C480122F4
:100DD000402101F0E8FB1E200EF0BCF90022204665
:100DE000082101F0E0FB02200EF0B4F901222046B8
:100DF000BDE81040082101F0D6BB000000200240F1
:100E0000001C024070B5284E0024306820F0C0005D
:100E100030603068306001220821304601F0C3FBA9
:100E2000224D01224021284601F0BDFB02200EF098
:100E300091F90821304601F0ADFB00282CD0601C50
:100E4000C4B2FA2C1FD93068344620F0C00030609C
:100E5000306840F04000306001222846402101F017
:100E6000A2FB1E200EF076F900222046082101F098
:100E70009AFB02200EF06EF901222046082101F0B3
:100E800092FB012070BD02200EF064F9082130466B
:100E900001F080FB0028D2D100222846402101F039
:100EA00082FB002070BD000000200240001C0240B8
:100EB00070B4BFF34F8FBFF36F8F1A4900200860E3
:100EC000194D296841F400312960BFF34F8FBFF3FA
:100ED0006F8F16490860BFF34F8F081F006843F6F5
:100EE000FF76134AC0F34E3CC0F3C90406EA4C1126
:100EF000204641EA80731360401EFAD2BCF1010C17
:100F0000F4D2BFF34F8F286840F480302860BFF3DD
:100F10004F8FBFF36F8F0748016841F004010160F4
:100F200070BC704750EF00E014ED00E084ED00E08D
:100F300060EF00E09CEF00E07047C268D1E9002359
:100F400042EA03220B89097B1B0443EA0161114336
:100F5000C160002070478268D1E9002342EA032281
:100F60000B89097B1B0443EA016111438160002066
:100F7000704700004DF8044D02680D4B1A40D1E94E
:100F8000013C43EA0C03D1E903C44CEA040C43EAF4
:100F90000C03D1F814C0896943EA4C2343EA413178
:100FA000114341F0080101605DF8044B00207047D7
:100FB0008101F0FFB3F5804F30B418BF6FF070417E
:100FC00004D040F8221030BC0020704750F8223086
:100FD000DFF824C08D8903EA0C03D1E900C44CEA90
:100FE000041C8C688969240244EA05444CEA040C18
:100FF0004CEA01011943E4E70000F0CF70B4D1F8E6
:1010000000C050F82C201B4BD1E903561A40D1E9FF
:10101000014335431C432C434D692C438D692C43BC
:10102000CD692C430D6A2C434D6A2C438D6A2C43A9
:10103000CD6A2C430D6B2C438D6B2C434D6B2C4395
:101040002243082B08BF42F0400240F82C200A6BD4
:10105000B2F5801F05D10A684AB1026842F48012D5
:1010600002600A681AB10268496B1143016070BCE2
:10107000002070478004C0FF00EB820270B4536808
:101080004FF07E46D1E900C48D8903F040434CEA1D
:10109000041C8C68240244EA05440D8A4CEA0404CA
:1010A000DFF834C00CEB05552C430D7D06EB0565D0
:1010B0002C438D692C4323435360026812F4801F34
:1010C00007D04268098A22F470020CEB01511143E7
:1010D000416070BC002070470000F0FF4DF8044DE7
:1010E000D1E901320C681343D1E903C24CEA020290
:1010F0001A434B6913438A69012C046843EA020CC2
:10110000CB690A6A496A08D04CEA03031A431143BF
:101110006FF30E04214301600BE024F4F8441A43FA
:1011200021430A43416802606FF30E014CEA01015A
:1011300041605DF8044B00207047426942EA41017A
:10114000416100207047F8B514460546D1E9000218
:101150006FF01F0310438A68C96803EB421242EA2A
:10116000412108430090286101F022FA0646A8694F
:1011700010F0200F0ED0B4F1FF3F07D024B101F0E2
:1011800017FA801BA04201D90320F8BDA86910F00E
:10119000200FF0D10020F8BD2DE9F001D1F804C0F6
:1011A0006FF00F050B682C015B1E05EB0C1C43EA6E
:1011B0000C03D1F808C04FEA0428270304EB0C2CD9
:1011C00043EA0C050B8A2604CC68012A826808EBE6
:1011D000034C8B8A097E07EB035306EB01610DD0AC
:1011E000361306EB04342C4344EA0C0C4CEA03039C
:1011F000194302F070421143816012E0240322F48B
:101200007042A4F58054234322F470021A43C36849
:1012100045EA0C0C826003F070434CEA010119436B
:10122000C160BDE8F00100207047000030B53948CA
:1012300087B0016841F080010160016801F0800120
:101240000691016841F48071016000680024012565
:1012500000F4807006908020CDE90104032001A9EC
:10126000CDE903502C4801F073F82802CDE90105BF
:101270002A4D01A9284601F06BF8FFF783FC0022F4
:101280002846A91501F08FF914200DF03DFF012229
:101290002846110201F087F932200DF035FF0122B6
:1012A000694600208DF8004000F040F901226946AF
:1012B000A42000F03BF91620694601228DF80000B9
:1012C000802000F033F90C20694601228DF80000DF
:1012D000882000F02BF902226946A12000F026F8B0
:1012E0009DF80000302804BF9DF80110032907D0A5
:1012F0009DF8011001291FBF0229012007B030BD50
:10130000C9B201EB002106A0FFF774F807B0002076
:1013100030BD000030380240001C02400020024076
:101320004354502049443A25780D0A002DE9F041F4
:1013300015460E460446FFF713FD7020FFF7D0FC5C
:10134000FFF760FDE0B2FFF7CBFCFFF75BFDFFF7B7
:1013500007FD7120FFF7C4FCFFF754FD0024002DAA
:1013600088BF6F1E0AD9BC4214BF01200020FFF7BE
:1013700037FC3055601CC4B2AC42F4D3BDE8F04138
:10138000FFF71ABD2DE9F14FDFF88CB10025DFF82A
:10139000909182B02C469BF80000401CC1B25F487F
:1013A0008BF80010A0FB0120C008404200EB800039
:1013B00011EB400001D00A297ED20122022002A9AD
:1013C000FFF7B4FF9DF8080010F00F0F74D000F085
:1013D0000F0006287ED2FF214FF0000A01FA00F02C
:1013E000C04340F0C00089F82000012099F8201087
:1013F000A84001425CD04B480426E84610F815404E
:10140000FFF7AEFC7020FFF76BFCFFF7FBFCE0B2D0
:10141000FFF766FCFFF7F6FCFFF7A2FC7120FFF771
:101420005FFCFFF7EFFC0024771EBC4214BF0120D5
:101430000020FFF7D5FB08F80400601CC4B2B442DA
:10144000F3D3FFF7B9FC99F830009DF8001010F0C5
:10145000010F9DF8010001F00F0100EB01210CD0FC
:1014600009EB4500C1829DF802209DF8031002F0AF
:101470000F0201EB022181810EE02B480088411A06
:1014800009EB450081819DF802209DF8031002F0D0
:101490000F0201EB0221C1829DF8000000F0F00074
:1014A000802805D009EB4500A0F816A0A0F80CA0F4
:1014B000681CC5B2052D00E00CE096D3B9F80C10FD
:1014C0000124002902BFB9F8160000288DF808A0F1
:1014D0008BF800A09DF8080010F01F0F11D199F8AB
:1014E000200010F0800F18BF20F0800007D14FF6C9
:1014F000FF71A9F80C1000F0E000A9F8161089F8A7
:1015000020009BF80000F02884BF0A208BF8000020
:10151000204603B0BDE8F08F2C000220CDCCCCCC0F
:1015200034000220246C0108301302202DE9F04120
:10153000002716460D460446FFF712FC7020FFF701
:10154000CFFBFFF75FFCE0B2FFF7CAFBFFF75AFCE7
:101550000024002E0AD9285DFFF7C2FBFFF752FCDA
:10156000070003D1601CC4B2B442F4D3FFF724FCDB
:101570003846BDE8F08100002DE9F0472C4E0027E9
:1015800082B089460DF104080546BA46B0790024B8
:10159000002815D9CDF80080002170884A468308BC
:1015A000B07900FB05F00AF0F9FD7088BDF8041071
:1015B000B1EB900F04D1601C84B2B079A042E9D89D
:1015C000B079A04203D102B00020BDE8F0872846E0
:1015D0000AF084FB20B117A03946FEF70BFF1BE091
:1015E000B9F1FF3F18D0ADF804A0B079002813D9A5
:1015F00070880022BDF804108308B07905FB001044
:1016000011460AF041FFBDF80400401C80B2ADF85D
:101610000400B1798142EBD8781C87B2032FB5D38F
:101620000AA02946FEF7E6FE02B00120BDE8F087D9
:10163000401402206572726F7220657261736520BA
:10164000626C6F636B3A25640D0A0000626164206E
:10165000626C6F636B20636865636B65643A2564D5
:101660000D0A00002DE9F04FDFF814B18A469146CB
:101670001D4683B09BF80610B0FBF1F2B0FBF1F809
:1016800001FB12000190404600F0E8F80746BBF865
:101690000A00874203D903B00120BDE8F08F9BF810
:1016A00006000024002844D90198844218D3BDB113
:1016B000BBF80200A0EB0A00A8422CBFAEB286B273
:1016C00000969BF806004B46524607FB004108FB7C
:1016D00000400AF061F9AD1B4FF0000AB14407E089
:1016E0009BF8060007FB004108FB00400AF04CFA9B
:1016F000C8B14FF0AA3000909BF8060004230021E7
:101700006A4600FB07F00AF0EBFE9BF80600042394
:1017100000216A4600FB07F0401C0AF0E1FE0120B0
:1017200000F030F8AFE7601C84B29BF80600A042DE
:10173000BAD8C0B2A0421FD1CC216A4601238DF88D
:10174000001000FB07F019460AF0CAFE40460AF0F6
:10175000C5FABBF80A200020002A88BFDBF8141065
:101760000AD931F81030434502D121F8107003E056
:10177000401C80B28242F4D803B00020BDE8F08F54
:1017800040140220F8B52E4D064600216889002835
:1017900088BF4FF6FF7006D96A6922F811006A897E
:1017A000491C8A42F8D80020A8810446688900288C
:1017B00021D9A879042300216A4600FB04F00AF02D
:1017C00025FD9DF80000FF280DD106B3A87901235F
:1017D00000216A4600FB04F0401C0AF017FD9DF84A
:1017E0000000FF2813D017A02146FEF703FE6889EA
:1017F000641CA042DDD869890020002988BF6A697D
:1018000018D932F810308B4211D3E88112E09DF8DC
:1018100003109DF8020000EB01216889884284BF13
:10182000686920F81140A889401CA881DFE7401CA6
:101830008842E6D3E889642834BF02200020F8BD3E
:101840004014022062616420626C6F636B20696ED9
:101850006465783A25640D0A0000000070B5114EE9
:101860000446114D70892968401E884238BF28609F
:1018700004F00101286800F019F8B0F1FF3F0CD125
:1018800070892968401E884209D904F00101286046
:1018900000F00CF8B0F1FF3F01D0286070BD4FF0B0
:1018A000FF3070BD4014022024000220F8B50F461E
:1018B0000021441C00911CBF01250D4E12D025EAC9
:1018C0000400B8420CD1B079611E04236A4600FBC3
:1018D00001F000210AF09AFC0098B0F1FF3F04D01B
:1018E000641EECD14FF0FF30F8BD601EF8BD000063
:1018F000401402202DE9F047544D002682B03446B2
:1019000001274FF00208AE816889002888BF4FF098
:10191000AA3944D98DF800600123A87900216A46CC
:1019200000FB04F00AF072FC9DF80000FF2818BFCD
:10193000404601D080B12EE0A879012300216A46FB
:1019400000FB04F0401C0AF061FC9DF80000FF2839
:101950000CBF30463846EDE720460AF0BFF9B8B173
:101960003BA02146FEF746FDCDF800900423A87960
:1019700000216A4600FB04F00AF0B2FDA8790423B6
:1019800000216A4600FB04F0401C0AF0A9FD02E0B9
:10199000A889401CA8816889641CA042BAD8A9897A
:1019A0002FA0FEF727FDA88964283EBF012002B0C2
:1019B000BDE8F087C0EB40102E49002400EB40004A
:1019C0000196A1FB00104FEA501A6889002834D90B
:1019D0008DF800600123A87900216A4600FB04F01D
:1019E0000AF014FC9DF80000FF2818BFC14603D080
:1019F000B9F1000F1DD10FE0A97901236A4601FB5F
:101A000004F00021401C0AF001FC9DF80000FF28B2
:101A10000CBFB146B946EBE7A879022301AA1946E3
:101A200000FB04F00AF05CFD0198401C0190504559
:101A300003D06889641CA042CAD80120FFF7A2FE27
:101A4000002818BF022002B0BDE8F0874014022031
:101A500042616420626C6F636B3A25640D0A00007A
:101A6000676F6F645F626C6F636B6E756D3A256450
:101A70000D0A00001F85EB5110B50AF059F9002836
:101A800021D1194C616900291CBF00200FF0B8FF5B
:101A90006089410000200FF0EBFF6061618949001F
:101AA000FEF731FE606970B10120FFF76BFE60B197
:101AB0000EA0FEF79FFCFFF71DFF90B111A0FEF7EF
:101AC00099FC022010BD012010BD618912A0FEF713
:101AD00091FCA18916A0FEF78DFCE18919A0FEF703
:101AE00089FC002010BD000040140220666F726D5A
:101AF0006174206E616E6420666C6173682E2E2E98
:101B00000D0A0000666F726D6174206661696C6514
:101B100064210D0A00000000746F74616C20626C17
:101B20006F636B206E756D3A25640D0A000000002E
:101B3000676F6F6420626C6F636B206E756D3A2502
:101B4000640D0A0076616C696420626C6F636B20BF
:101B50006E756D3A25640D0A000000002DE9FF4FF7
:101B60005FEA0309144681B082464FF000067DD03B
:101B7000DFF84CC1BCF802009CF80620B0FBF4F181
:101B800001FB02F502998B19B3FBF5F1BCF80E507D
:101B90008D4232BF4FF6FF71DCF8145035F811104A
:101BA000BCF80A508D4203D805B00120BDE8F08F83
:101BB000B0FBF4FC0CFB02FCB3FBFCF50CFB153397
:101BC00003FB04F3B3FBF0FC01FB02C7B3FBF0F132
:101BD00000FB1138A0EB0800B0FBF4F085B2A9EBD4
:101BE0000600854288BF85B205FB04FB1FFA88F119
:101BF00052461FFA8BF338460AF064F9032809D1DC
:101C00001FFA8BF352461FFA88F138460AF05AF948
:101C1000032808D0042818BF002846D005B04FF08C
:101C20000200BDE8F08F1FFA88F15B465246384645
:101C3000FFF718FDDFF888804FF0FF3198F80600B5
:101C4000B7FBF0F0FFF798FC90B998F80600002178
:101C5000B7FBF0F0FFF790FC834698F80600B7FB5F
:101C6000F0F00AF03BF8BBF1000F00E023E01CD0DD
:101C700098F80600042300216A46B7FBF0F74FF0FE
:101C8000AA30009098F8060000FB07F00AF028FC44
:101C900098F80600042300216A4600FB07F0401C68
:101CA0000AF01EFC0120FFF76DFD04FB05AA2E447F
:101CB0004E45FFF45DAF05B00020BDE8F08F000099
:101CC000401402202DE9FF4F85B015465FEA030B53
:101CD0004FF000084FF0FF3003907CD0DFF838C1A0
:101CE000BCF802009CF80620B0FBF5F101FB02F401
:101CF000069901EB0803B3FBF4F1BCF80E408C42EB
:101D000032BF4FF6FF76DCF8144034F81160BCF8AF
:101D10000A10B14203D809B00120BDE8F08FB0FB32
:101D2000F5F101FB02F1B3FBF1FC01FB1C3101FBFE
:101D300005FABAFBF0F106FB02110291BAFBF0F1D1
:101D400000FB11A9ABEB08010491A0EB090080B2E4
:101D5000B0FBF5F08CB2ADF80400A04298BF044689
:101D600004FB05F701A800901FFA89F102984FF0D3
:101D7000FF32C7F38F030AF011FA18B109B002203D
:101D8000BDE8F08FBDF80400B0EB970F18D1BBB2DF
:101D9000059A1FFA89F102980AF0B4FA80B90398FB
:101DA000B0422ED0CC208DF800001B4801236A469B
:101DB0001946807900FB06F00AF092FB039600B307
:101DC00015488179408801FB00F0A0EB0A00B0FBC8
:101DD000F5F080B200E01BE00499ADF804008CB28D
:101DE000844228BF044604FB05F71FFA89F1059ACF
:101DF00002983B46FFF736FC18B109B00320BDE856
:101E0000F08F0599A044D84539440591FFF466AF99
:101E100009B00020BDE8F08F401402202DE9F04108
:101E2000534888B0016841F080010160016801F009
:101E300080010791016841F480710160006800240D
:101E40000326DFF8308100F4807007908025694612
:101E500001274046CDE90054CDE9027600F078FA3A
:101E600068006946CDE90007434F384600F070FA34
:101E7000FEF788FE00223846690000F094FB0A2035
:101E80000DF042F901223846110200F08CFB0A20C5
:101E90000DF03AF9CDE90054CDE9024669464046D5
:101EA00000F056FA64200DF02FF9042248F2401099
:101EB00005A900F07BF805A98DF818402FA0FEF7C2
:101EC00099FA31A105A8FEF741FC00281EBF0120A8
:101ED00008B0BDE8F0810220012205A98DF81400A8
:101EE00048F2400000F08EF9012248F2470005A9AF
:101EF00000F05CF89DF8141060292AD224A0FEF7A7
:101F000079FA28488088A0F5AA41103921D18DF8A6
:101F10001C4001218DF81D10002023499DF81C2034
:101F20000B5C401CC0B2B8281A448DF81C20F5D3B5
:101F3000D0B21D49C043401C8DF81C00B82248F2A5
:101F4000470000F05FF9022248F2FF0007A900F005
:101F500059F90A200DF0D8F8012248F2400005A9ED
:101F60008DF8144000F04EF908B00020BDE8F08173
:101F700030380240001C02400020024043545020F0
:101F800049443A25730D0A00393134370000000006
:101F900044656661756C74205665723A25640D0A55
:101FA00000000000301302202E6C01082DE9F041E2
:101FB00015460E460446FEF7D3FE2820FEF790FE97
:101FC000FEF720FF200AFEF78BFEFEF71BFFE0B2B4
:101FD000FEF786FEFEF716FFFEF7C2FE2920FEF78B
:101FE0007FFEFEF70FFF0024002D88BF6F1E0AD969
:101FF000BC4214BF01200020FEF7F2FD3055601CEA
:10200000C4B2AC42F4D3BDE8F041FEF7D5BE000047
:102010002DE9F14F764E0024764982B0764DA246E6
:102020003078401CC0B23070A1FB0021C908494281
:1020300001EB810110EB410101D00A287BD2012282
:1020400048F24E1002A9FFF7B1FF9DF808004FF0CB
:10205000000910F0800F0BD000F00F00062807D207
:10206000012248F24E1001A98DF8049000F0CAF840
:102070009DF8080010F00F0F5DD000F00F0006284B
:1020800059D2FF21DFF874B1DFF874814FF0010AF3
:1020900001FA00F08DF80400C04395F8207040F07C
:1020A000C00085F82000A889A882E88AE88395F80E
:1020B00020000AFA04F1084250D03BF81400042230
:1020C0006946FFF773FFB8F80400A0F5AA4110397C
:1020D00004D0A0F58641423917D03FE095F8300092
:1020E00010F0010F16D09DF801109DF8000000EBD4
:1020F000012105EB4400C1829DF803209DF80210E8
:1021000001EB0221C1F5487127E095F8300010F08D
:10211000010F11D09DF801109DF8000000EB012186
:1021200005EB440081819DF803209DF8021001EB2E
:102130000221C18212E03BE09DF801109DF80000F1
:1021400000EB012105EB4400C1829DF803209DF8BE
:10215000021001EB0221C1F588718181601CC4B2BB
:10216000052CA4D3A9894FF0010AB8F8002028460D
:102170008A4207D3C18AB8F802208A4228BF86F86B
:10218000009015D29DF8081001F00F01012906D921
:10219000C1898181018BE98286F8009008E0818AFB
:1021A0008181C18BC18280218DF8081085F8207053
:1021B0009DF8080000F08F0080280FD195F82000CE
:1021C00010F0800F18BF20F0800005D14FF6FF718E
:1021D000A98100F0E000E98285F820003078F0283D
:1021E00084BF0A203070504603B0BDE8F08F000075
:1021F0002D000220CDCCCCCC34000220E66C0108AE
:10220000301302202DE9F041002715460E46044602
:10221000FEF7A6FD2820FEF763FDFEF7F3FD200A7A
:10222000FEF75EFDFEF7EEFDE0B2FEF759FDFEF7AC
:10223000E9FD0024002D0AD9305DFEF751FDFEF7BF
:10224000E1FD070003D1601CC4B2AC42F4D3FEF739
:10225000B3FD3846BDE8F08130B413468C460446E1
:1022600012F0070018BF012000EBD300217810FB0B
:1022700003F08129C2B2607828BF402825D3FF2807
:1022800018BFFF2921D07F2834BF40384138C4B25D
:10229000A1F18100C0B20C2BC0EB401101EB80100A
:1022A0001B4904EB400000FB02F01CD0102B21D096
:1022B000182B26D0202B1CBF30BC7047D1F8211022
:1022C0000144604630BC0CF0FFBB0023002A8EBFE7
:1022D000002030BC70470CF8010B591CCBB29A425D
:1022E000F9D830BC7047D1F8091030BC01446046C1
:1022F0000CF0EABBD1F8111030BC014460460CF080
:10230000E3BBD1F8191030BC014460460CF0DCBBD3
:10231000F8CF042090F83510022903D080214165C0
:1023200001207047052180F835100068016821F010
:10233000010101600020704731B500F039F9044611
:1023400000F036F90099001B8842F9D338BD00002F
:102350002DE9F84FDFF830920022DFF828820F27AE
:1023600009F1040A4FF0010E0B680EFA02F52B403A
:10237000AB4240F00181D1F804C0BCF1020F18BF9C
:10238000BCF1120F15D14FEAD20C00EB8C0CDCF82B
:1023900020604FEA42744FEAD46407FA04FB26EA4D
:1023A0000B06D1F810B00BFA04F444EA0604CCF89A
:1023B000204006684FEA420C91F804B04FF0030445
:1023C0000BF0030B04FA0CF40BFA0CFB26EA0406E0
:1023D0004BEA060606604E68012E18BF022E03D097
:1023E000112E18BF122E14D18668D1F80CB026EA2F
:1023F00004060BFA0CFB4BEA06068660466826EAE2
:1024000005050E79C6F3001606FA02F646EA05053A
:102410004560C56825EA04048D6805FA0CFC4CEAA1
:10242000040CC0F80CC0D1F804C01CF0805F7CD054
:10243000D8F800C04CF4804CC8F800C0D8F800C0F0
:102440000CF4804CCDF800C022F0030C0CF1804558
:1024500005F59835D5F808C84FEA82744FEA147428
:1024600007FA04F62CEA0606A0F1804CBCF5003C05
:1024700048D0A0F1804CBCF5013C08BF4FF0010CE6
:1024800040D0A0F1804CBCF5023C08BF4FF0020CDC
:1024900038D0A0F1804CBCF5033C08BF4FF0030CD2
:1024A00030D0A0F1804CBCF5043C08BF4FF0040CC8
:1024B00028D0A0F1804CBCF5053C08BF4FF0050CBE
:1024C00020D0A0F1804CBCF5063C08BF4FF0060CB4
:1024D00018D0A0F1804CBCF5073C08BF4FF0070CAA
:1024E00010D0A0F1804CBCF5083C08BF4FF0080CA0
:1024F00008D0A0F1804CBCF5093C0CBF4FF0090C92
:102500004FF00A0C0CFA04FC4CEA060CC5F808C89B
:10251000D9F800C04C682CEA030C14F4803F18BFB3
:102520004CEA030CC9F800C000E025E0DAF800C06E
:102530004C682CEA030C14F4003F18BF4CEA030C5F
:10254000CAF800C0114CD4F800C04D682CEA030C46
:1025500015F4801F18BF4CEA030CC4F800C00C4CE3
:10256000D4F800C04D682CEA030C15F4001F18BF06
:102570004CEA030CC4F800C0521C102AFFF4F4AE5D
:10258000BDE8F88F44380240003C0140083C01405F
:102590000C3C01400069084018BF012070474269A7
:1025A000514041617047002A08BF090481617047AA
:1025B00001480068704700000800022002480168D6
:1025C000491C01607047000008000220074810B550
:1025D000016841F400710160052000F089FA0F20C4
:1025E00000F006F800F0C4F9002010BD003C0240E5
:1025F00010B5044607484FF47A720068B0FBF2F059
:1026000002F0CCFA00222146501E00F03FFA0020D2
:1026100010BD0000040002202DE9F05F044690F890
:10262000A000012804BF0220BDE8F09F0125022080
:1026300084F8A05084F8A10002EB820000EBC200F5
:1026400004EB8003B1E8C11F3833A3E8C11F91E850
:10265000C111203983E8C111204609F027F820680C
:10266000456284F8A150002084F8A000BDE8F09FE6
:10267000002804BF0120704770B5044690F8A100FF
:10268000002520B9204684F8A05000F077F80220F9
:1026900084F8A1002068816921F070418161D4E94A
:1026A00001010843D4E90312114301432068826900
:1026B00011438161206882682F490A408260A08AA4
:1026C000020420688368D4F818C043EA0C031A4354
:1026D00082602068C2680A40C260A08B0204206841
:1026E000C368D4F820C043EA0C031A43C2602068D0
:1026F00002690A400261A08C020420680369D4F8D0
:1027000028C043EA0C031A43026120684269114061
:102710004161A08D010420684269236B1A43114373
:10272000416194F83500020294F8360001042068F3
:10273000C36A03F07F43C3622068C36A114394F8FD
:1027400034C043EA0C031943C1622068416B41F075
:10275000040141632068416B41F00201416320683C
:10276000816941F001018161C4F8A450012084F81D
:10277000A100002070BD000000F800F0354810B541
:1027800086B0016841F080610160006800F08060FF
:1027900005903148016841F400010160016801F4CD
:1027A00000010591016841F002010160016801F03A
:1027B00002010591016841F020010160016801F00A
:1027C00020010591016841F040010160016801F0BC
:1027D00040010591016841F080010160016801F04C
:1027E00080010591016841F4807101600068032453
:1027F000694600F48070059020200090012001902F
:10280000CDE902041548FFF7A3FD4FF48060009066
:102810000220019000206946CDE902040E200490B8
:102820000F48FFF795FD4FF40C6000900D48694686
:10283000FFF78EFD4FF47E4000900B486946FFF78E
:1028400087FD40F2F760009008486946FFF780FD79
:1028500006B010BD44380240303802400004024047
:102860000014024000180240001C024000200240F8
:1028700070B5044690F8A0008C46012804BF0220E1
:1028800070BD0125022084F8A05084F8A10003EB5C
:10289000830000EBC30004EB800000F13801C0F8B6
:1028A00038C0006E6044C1E90102C86A10441A468B
:1028B000C860204608F0FAFE2068456284F8A150FE
:1028C000002084F8A00070BD70B5044690F8A00008
:1028D0008C46012804BF022070BD0125022084F827
:1028E000A05084F8A10003EB830000EBC300002696
:1028F00004EB800000F138012046C1E9006CC1E919
:102900000262C1E90AC21A4608F0D0FE2068456298
:1029100084F8A150002084F8A06070BD134A41786B
:102920001160111D03780A1D002B04BF00200860F0
:102930001AD043680B60017BC37A090741EA03613F
:10294000837A41EAC341437B41EA8341837B41EA85
:102950004341C37B41EA0341437A41EA0321037ABD
:10296000007841EA430108431060704798ED00E0A9
:102970007047002804BF0120704770B5044690F8E6
:10298000210015460E4628B9002084F82000204674
:1029900000F018F82068211DFEF7ECFAD4E90002D7
:1029A0003146FEF7D8FAD4E900022946FEF7C5FA07
:1029B0002068016841F004010160012084F82100D1
:1029C000002070BD264870B586B0016841F0010155
:1029D0000160006800F0010005902248016841F0A4
:1029E00008010160016801F008010591016841F0EA
:1029F00010010160016801F010010591016841F0CA
:102A000040010160006800240325174E00F04000DB
:102A1000059040206946CDE900040120CDE902057A
:102A20003046FFF795FC711500910C200221CDE98D
:102A30000114CDE903500D486946FFF789FC4DF6B6
:102A400033006946029400903046FFF781FC4FF452
:102A5000F060009006486946FFF77AFC06B070BD4A
:102A60003838024030380240000C02400018024062
:102A700000100240012200F01F0102FA01F140099A
:102A8000800000F1E020C0F800117047174B4DF8AE
:102A9000044D1B68C3F30223C3F1070CBCF1040F00
:102AA00088BF4FF0040C1C1D072C34BF0023DB1E15
:102AB000012404FA0CFCACF1010C0CEA0101994070
:102AC00004FA03F35B1E1A40114300284FEA011178
:102AD000B8BF00F00F0000F1E020B4BF80F8141D73
:102AE00080F800145DF8044B704700000CED00E026
:102AF000074A00F0070011684FF6FF03194041EA4A
:102B0000002040F0FD7040F08060106070470000D1
:102B10000CED00E01C4838B5016841F080510160BF
:102B200000681A4C00F080500090206840F480301B
:102B30002060FFF73DFD0546606810F4803F09D135
:102B4000FFF736FD401BB0F57A7F14D8606810F4AB
:102B5000803FF5D0206840F400302060FFF728FD6A
:102B60000546606810F4003F0BD1FFF721FD401BC4
:102B7000B0F57A7F01D9032038BD606810F4003FBA
:102B8000F3D0002038BD0000403802400070004003
:102B90002DE9F84F16468A460446FFF709FD83469D
:102BA00094F83800012804BF0220BDE8F88F0127FF
:102BB00084F8387094F839004FF00008012818BFE5
:102BC000022504D084F838802846BDE8F88FC4F880
:102BD0003C804FF0020984F83990002220215B46A6
:102BE000204600960AF02AF80500EBD10022514653
:102BF000204609F09CFEDAF82400002818BF84F86B
:102C00003970DFD101225B460221204600960AF08E
:102C100015F80500D6D12068C0F80C9084F83970FA
:102C2000D0E70000F8B50446FFF7C2FC002C0746C9
:102C300004BF0120F8BD94F83800012804BF022029
:102C4000F8BD012684F8386094F83900002538B9B9
:102C500084F83850204600F045F841F2883020646E
:102C6000206801686FF0FF03A26821F4F85103EBBC
:102C7000022211430160206C002220213B4600907B
:102C8000204609F0DBFF010026D1E269E0682379E4
:102C90001043226A42EA036202432068036823F079
:102CA000D00323F07F431A430260D4E905020243B4
:102CB00020684368DFF828C003EA0C03B4F810C0AA
:102CC00043EA0C431A4342602068026842F0010262
:102CD0000260E56384F8396084F838500846F8BD2E
:102CE000FEF8E0FF224830B587B0016841F00201EC
:102CF0000160006800F0020005901E48016841F084
:102D000002010160016801F002010591016841F0D2
:102D10002001016000680324174D694600F020007F
:102D2000059040200090022001900120CDE902048E
:102D30000A2004902846FFF70BFB21020091002196
:102D4000CDE902140D4C69462046FFF701FB042132
:102D500000910921284604916946FFF7F9FAC0203D
:102D6000694600902046FFF7F3FA07B030BD000037
:102D7000383802403038024000040240001402405B
:102D80002DE9F84F15468A460446FFF711FC8146A7
:102D90002068816900F1200694F83820012A04BFD8
:102DA0000220BDE8F88F012784F8387094F83920A4
:102DB0004FF00008012A18BF022003D084F83880A1
:102DC000BDE8F88FC4F83C80BAF1000F35D022225C
:102DD00084F839200269521C62860269521C2286DC
:102DE000C4F82CA0426922F0406242F08062426145
:102DF00020688161608E90B101224B4606212046F9
:102E0000009509F01BFFA8B93178E06A421CE26224
:102E10000170608E401E6086608E0028ECD1012219
:102E20004B4602212046009509F008FF10B92268A0
:102E30000221D16084F83970C0E7E06B40F00800EF
:102E4000E0630120BAE72DE9F84F15468A460446AB
:102E5000FFF7AEFB8146206894F8381000F1200699
:102E6000012904BF0220BDE8F88F012784F83870DB
:102E700094F839104FF00008012918BF022003D040
:102E800084F83880BDE8F88FC4F83C80BAF1000FB0
:102E900031D0122184F839100169491C618501691A
:102EA000491C2185C4F824A0416921F04061416199
:102EB000608D90B101224B4604212046009509F017
:102EC000BDFEA8B9606A411C616200783070608DF7
:102ED000401E6085608D0028ECD101224B46022106
:102EE0002046009509F0AAFE10B922680221D1609F
:102EF00084F83970C4E7E06B40F00800E06301201B
:102F0000BEE700002DE9F84F04460078DFF82C9466
:102F10004FF0000B10F0010F5D4610D0D9F8000003
:102F200020F40000C9F80000D9F80000616B0843E4
:102F3000C9F80000606B002808BF4FF0010B206843
:102F4000FF4E10F4002F0FD03068E16B20F44010DA
:102F500008433060E06BB0F5801F08BF4FF0010BF5
:102F600002D0002808BF0125206810F4801F0FD070
:102F70003068216C20F4400008433060206CB0F5CC
:102F8000800F08BF4FF0010B02D0002808BF0125B9
:102F9000206810F0807F18BF4FF0010B10F0200F59
:102FA00071D0E848016841F0805101600068DFF8A5
:102FB000988300F080500090D8F8000040F48070B2
:102FC000C8F80000FFF7F4FA0746D8F8000010F43C
:102FD000807F0AD1FFF7ECFAC01B642800F230832F
:102FE000D8F8000010F4807FF4D0DFF86083D8F8C0
:102FF000000010F4407031D0218E01F44071814204
:103000002CD0D8F80000D8F8001020F4407041F41B
:103010008031C8F80010D8F8001021F48031C8F8C9
:103020000010C8F80000D8F8000010F0010F15D00B
:10303000FFF7BEFA0746D8F8000010F0020F08BFED
:1030400041F2883A0AD1FFF7B3FAC01B504500F2AB
:10305000F782D8F8000010F0020FF4D0206B4FF484
:10306000407181431CBFD9F8000020F4F81000F033
:10307000EE80C9F80000D8F80000218EC1F30B01E2
:103080000843C8F80000207810F0100F07D030680F
:1030900020F0807030603068A16B08433060208879
:1030A00010F4804FAA4805D00168626E21F44031C7
:1030B00011430160218811F4004F05D00168A26E10
:1030C00021F4402111430160216811F4803F05D0B3
:1030D0000168E26E21F4401111430160216811F48E
:1030E000003F05D00168226F21F4400111430160C7
:1030F000217811F0400F05D00168626C21F00301C6
:1031000011430160217811F0800F05D00168A26C95
:1031100021F00C0111430160218811F4807F05D05A
:103120000168E26C21F0300111430160218811F443
:10313000007F05D00168226D21F0C00111430160BC
:10314000218811F4806F05D00168626D21F440710F
:1031500011430160218811F4006F05D00168A26D50
:1031600021F4406111430160218811F4805F05D092
:103170000168E26D21F4405111430160218811F48E
:10318000005F05D00168226E21F4404111430160C7
:10319000216811F4800F05D00168A26F21F08061D1
:1031A00011430160216811F4001F0AD00168E26F29
:1031B00021F0006111430160E16FB1F1006F08BFC0
:1031C0000125216811F0080F18BF012511F4802F87
:1031D00005D00168626F21F04071114301602168E0
:1031E00011F4000F06D00168D4F8802021F080513E
:1031F00011430160216811F0806F06D00168D4F896
:10320000842021F0005111430160206810F0006F0C
:1032100006D03068D4F8881020F000700843306081
:10322000206810F0805F06D03068D4F88C1020F051
:10323000806008433060BBF1000F47F6C07A4FF45E
:1032400040374FF070684FF0E0490ED109E0D9F8EF
:10325000001020F4407020F0704021F4F811084371
:1032600007E72068B0F1007F67D13A48006820F096
:10327000806138480160FFF79BF983463548006854
:1032800010F0006F0BD0FFF793F9A0EB0B00642850
:1032900000F2D6812F48006810F0006FF3D120783B
:1032A00010F0010F2C482DD0616B59BB016897FAC3
:1032B000A7F201F44031B2FA82F2D140026898FAE2
:1032C000A8F39AFAAAFC02F07062B3FA83F3BCFA8C
:1032D0008CFCDA40636803FA0CF397FAA7FCBCFA9B
:1032E0008CFC01FA0CF1194398FAA8F3B3FA83F3B2
:1032F0009A4099FAA9F30A43A168B3FA83F3994073
:1033000011430160216811F4002F03D0E26BB2F584
:10331000801F06D011F4801F49D0216CB1F5800FB9
:1033200045D1016897FAA7F201F44031B2FA82F26E
:10333000D140026802F0E04210E0A5E00838024007
:103340008C38024040380240007000407038024023
:1033500090380240003802408438024099FAA9F3BC
:103360009AFAAAFCB3FA83F3BCFA8CFCDA406368DD
:1033700003FA0CF397FAA7FCBCFA8CFC01FA0CF1E7
:1033800098FAA8FC1943E368BCFA8CFC03FA0CF326
:10339000194399FAA9F3B3FA83F39A4011430160F0
:1033A0003168626A21F01F01521E114331602168A9
:1033B00011F0807F2ED0016898FAA8F201F07061B8
:1033C000B2FA82F2D140026899FAA9F39AFAAAFCF9
:1033D00002F0E042B3FA83F3BCFA8CFCDA40636893
:1033E00097FAA7FBBBFA8BFB03FA0CF3D4F810C0D7
:1033F0000CFA0BFC43EA0C0398FAA8FCBCFA8CFC10
:1034000001FA0CF1194399FAA9F3B3FA83F39A403C
:1034100011430160216811F0007F1CD09AFAAAF2D2
:10342000616897FAA7F3B2FA82F2B3FA83F301FA6A
:1034300002F22169994098FAA8F31143E268B3FABD
:1034400083F39A4099FAA9F31143A268B3FA83F37C
:103450009A40114301607F48006840F080617D48D8
:103460000160FFF7A5F883467A48006810F0006F06
:103470000AD1FFF79DF8A0EB0B0064287DD87548B2
:10348000006810F0006FF4D0002D77D0714D2868DF
:1034900020F080502860FFF78BF88346286810F0F2
:1034A000005F09D0FFF784F8A0EB0B00642864D814
:1034B000286810F0005FF5D12068DFF89CC110F497
:1034C000002F01D0E16B21B110F4801F38D0206CA7
:1034D000B0BBDCF8000097FAA7F100F44030B1FA75
:1034E00081F1C840DCF8001099FAA9F29AFAAAF31F
:1034F00001F0E041B2FA82F2B3FA83F3D14062699B
:103500009A4097FAA7F3B3FA83F3984098FAA8F38E
:103510001043A269B3FA83F39A40104399FAA9F2CF
:10352000B2FA82F291400843CCF8000030686FF0A4
:10353000FF02A16A20F4F85002EB01210843306039
:10354000206810F4001F34D0E06FB0F1006F30D16C
:10355000DCF8000098FAA8F100F07060B1FA81F18F
:10356000C840DCF8001099FAA9F29AFAAAF301F01F
:10357000E041B2FA82F2D14001E061E067E06269C5
:10358000B3FA83F397FAA7FB9A40236ABBFA8BFB43
:1035900003FA0BF31A4398FAA8F3B3FA83F39840AB
:1035A000104399FAA9F2B2FA82F291400843CCF89A
:1035B0000000207810F0080F32D0DCF8000098FAF4
:1035C000A8F100F07060B1FA81F1C840DCF8001099
:1035D00097FAA7F29AFAAAF301F44031B2FA82F20A
:1035E000B3FA83F3D14062699A4097FAA7F3B3FA2A
:1035F00083F39940114398FAA8F2B2FA82F290400C
:1036000099FAA9F20843E169B2FA82F291400843BB
:10361000CCF800003068E16A20F4403008433060A4
:10362000286840F080502860FEF7C2FF04462868F2
:1036300010F0005F0BD1FEF7BBFF001B642802D91E
:103640000320BDE8F88F286810F0005FF3D0002059
:10365000BDE8F88F00380240883802402DE9F04775
:10366000DFF8688104460D46D8F8000000F00F002E
:10367000A8420CD2D8F8000020F00F002843C8F868
:103680000000D8F8000000F00F00A84270D12078A8
:103690004F4F10F0020F05D03868A16820F0F000FD
:1036A00008433860207810F0010F4ED06068494917
:1036B000012820D00968022822D011F0020F57D02B
:1036C000396821F0030108433860FEF771FF0646B0
:1036D000606841F28839012816D00228386800F065
:1036E0000C0021D0F8B1FEF763FF801B484528D9B4
:1036F0000320BDE8F087096811F4003FE0D137E00E
:1037000011F0007FDCD133E0386800F00C000428B1
:103710001BD0FEF74DFF801B4845E9D8386800F004
:103720000C000428F5D110E008280ED0FEF740FF69
:10373000801B4845DCD8386800F00C000828F5D11B
:1037400003E0386810F00C0FCDD1D8F8000000F07D
:103750000F00A8420FD9D8F8000020F00F0028432E
:10376000C8F80000D8F8000000F00F00A84202D00E
:103770000120BDE8F087207810F0040F05D03868EC
:10378000E16820F4E05008433860207810F0080F1A
:1037900006D03868216920F4604040EAC1003860F2
:1037A00000F04EF83968F02292FAA2F201F0F0012E
:1037B000B2FA82F2D140084A515CC8400749086019
:1037C0000F20FEF715FF0020BDE8F087003C024007
:1037D0000838024000380240CC24010804000220CE
:1037E00008480949006809684FF4E05292FAA2F2C9
:1037F00001F4E051B2FA82F2D140044A515CC8406F
:10380000704700000400022008380240DC24010850
:1038100008480949006809684FF4604292FAA2F228
:1038200001F46041B2FA82F2D140044A515CC840CE
:10383000704700000400022008380240DC24010820
:103840002148006810F00C01204808BF7047DFF8DD
:1038500080C0042904BF60467047082918BF70471C
:103860004DF8044D1B4A1168136801F03F0113F431
:10387000800F47F6C0730BD0BCFBF1F01168194004
:1038800093FAA3F3B3FA83F3D94000FB01F00AE003
:10389000B0FBF1F01168194093FAA3F3B3FA83F384
:1038A000D94000FB01F011684FF440325DF8044B41
:1038B00092FAA2F201F44031B2FA82F2D140491CEC
:1038C0004900B0FBF1F07047083802400024F400D2
:1038D00040787D01043802402DE9F84FDFF8A883D5
:1038E00004460078A8F1040710F0010FA7F10405C1
:1038F0005AD0D8F8000000F00C00042809D0D8F8FD
:10390000000000F00C0008280CD1386810F4800F7B
:1039100008D0286810F4003F46D06068002800F006
:10392000AF8141E06068B0F5803F04BF286840F493
:1039300080300AD010B1B0F5A02F11D0286820F443
:1039400080302860286820F4802028606068D0B12A
:10395000FEF72EFE0646286810F4003F08D023E04C
:10396000286840F480202860286840F48030ECE724
:10397000FEF71EFE801B642800F22581286810F4E3
:10398000003FF5D010E0FEF713FE0646286810F45D
:10399000003F09D0FEF70CFE801B642800F2138163
:1039A000286810F4003FF5D1207810F0020F50D0B5
:1039B000D8F800004FF0F80910F00C0F18D0D8F824
:1039C000000000F00C00082804BF386810F4800FD5
:1039D0000ED0E0680028286828D040F00100286058
:1039E000FEF7E6FD0646286810F0020F09D011E048
:1039F000286810F0020F1CBFE06801280AD000F010
:103A00003FB9FEF7D5FD801B02287DD8286810F04D
:103A1000020FF6D0286899FAA9F22169B2FA82F267
:103A200020F0F80091400843286012E020F00100E7
:103A30002860FEF7BDFD0646286810F0020F08D08A
:103A4000FEF7B6FD801B02285ED8286810F0020F32
:103A5000F6D1207810F0080F33D0DFF8309260698B
:103A60000028D9F8000016D040F00100C9F8000085
:103A7000FEF79EFD0646D9F8000010F0020F20D197
:103A8000FEF796FD801B02283ED8D9F8000010F002
:103A9000020FF5D015E020F00100C9F80000FEF794
:103AA00087FD0646D9F8000010F0020F09D0FEF796
:103AB0007FFD801B022827D8D9F8000010F0020FE4
:103AC000F5D1207810F0040F63D07148016841F0FF
:103AD0008051016000686F4E00F0805000903068A7
:103AE00040F480703060FEF763FD8146306810F46A
:103AF000807F0BD1FEF75CFDA0EB0900642862D843
:103B0000306810F4807F00E05DE0F3D0A068624E82
:103B1000012804BF306840F0010009D008B1052831
:103B200013D0306820F001003060306820F00400CD
:103B30003060A06841F2883AD0B1FEF739FD814685
:103B4000306810F0020F08D023E0306840F0040025
:103B50003060306840F00100EAE7FEF729FDA0EB95
:103B6000090050452FD8306810F0020FF5D010E052
:103B7000FEF71EFD8146306810F0020F09D0FEF7F7
:103B800017FDA0EB090050451DD8306810F0020F5A
:103B9000F5D1A069E8B3D8F8001001F00C010829AC
:103BA0006ED00228286820F0807028600ED0FEF7C2
:103BB000FFFC0446286810F0007F5ED0FEF7F8FC9A
:103BC000001B022855D90320BDE8F88FFEF7F0FC52
:103BD0000646286810F0007F08D0FEF7E9FC801B3D
:103BE0000228F0D8286810F0007FF6D1D4E9070148
:103BF00047F6C0724FF0FF3392FAA2F20843616AAF
:103C0000B2FA82F29140A26A03EB52024FF44033BF
:103C100000E032E093FAA3F3B3FA83F39A4011433E
:103C20004FF070620843E16A92FAA2F2B2FA82F2AD
:103C300091404FF0E0420843216B92FAA2F2B2FAAF
:103C400082F2914008433860286840F08070286014
:103C5000FEF7AEFC0446286810F0007F0DD1FEF799
:103C6000A7FC001B0228AED8286810F0007FF6D011
:103C700003E0286810F0007FA0D10020BDE8F88F95
:103C80000120BDE8F88F0000083802407438024077
:103C9000403802400070004070380240002804BFE5
:103CA0000120704770B5044690F82C000D4628B9E5
:103CB000002084F82D00204600F012F8022084F83D
:103CC0002C002068211DFDF709FAD4E900022946DD
:103CD000FDF762FA012084F82C00002070BD00007E
:103CE00030484DF804ED87B0016841F001010160F2
:103CF000006800F0010005902B48016841F00401C4
:103D00000160016801F004010591016841F00801BA
:103D10000160016801F008010591016841F010019E
:103D20000160016801F010010591016841F0200176
:103D30000160016801F020010591016841F0400136
:103D400001600068694600F0400005900D20009079
:103D50000220019001200290032003900C20049087
:103D60001248FEF7F5FA4CF20370009010486946CD
:103D7000FEF7EEFA4FF6837000900E486946FEF7A4
:103D8000E7FA4FF63F0000900B486946FEF7E0FA6D
:103D900048F23710009009486946FEF7D9FA07B093
:103DA0005DF804FB38380240303802400008024019
:103DB000000C0240001002400014024000180240B3
:103DC00010B5044690F82C00022808BF10BD022050
:103DD00084F82C002068FDF7B0F9012084F82C004D
:103DE000002010BD70B5044690F82C000D46022846
:103DF00008BF70BD022084F82C002068FDF7A3F9ED
:103E0000286802280CBF0520012084F82C0000201F
:103E100070BD2DE9F00790F820204FF0000C81F8DC
:103E20005620828CA1F85420826A120E93090B70DE
:103E3000C2F383034B7002F003028A70826A120C91
:103E4000CA70028D120A0A7190F828204A714FF642
:103E5000FF75C26A120E05EA0212CA80C26ACB88D6
:103E6000C2F3074243EA1213CB8002F00F020A7238
:103E7000828DC2F30722D3094B72C2F380138B7277
:103E8000C2F34013CB72C2F300130B7300264E73C0
:103E9000036A0124002B18BF012B00F0B780022B0E
:103EA00018BF4FF0290C00F0F380C2F380134B765B
:103EB0009206520E8A7690F830208B7E43EAD21317
:103EC0008B7602F07F02CA76426B120ED3090B7713
:103ED000C2F341134B77C2F382038B779207120F21
:103EE000CA77426BCB7FC2F3074243EA9213CB7788
:103EF000C2F3401381F8203081F8216002F0010202
:103F000081F82220828EC2F30722D30981F8233060
:103F1000C2F3801381F82430C2F3401381F82530B6
:103F2000C2F3001381F82630C2F3810381F82730F1
:103F300002F0030281F8282090F83420520881F81A
:103F4000292081F82A40826B120E81F82C20826B86
:103F5000120C05EA0222CA85028FCB8DC2F307221A
:103F60001A43CA8590F8382012060A63C26B0B6B9D
:103F7000120E43EA02420A63C26B0B6BC2F30742A2
:103F800043EA02220A63828F0B6BC2F307221A43B1
:103F90000A6390F83C2081F83420026C120E81F8FC
:103FA0003520026C120C12068A63B0F840208B6B2D
:103FB000C2F3072243EA02428A6390F840208B6BE7
:103FC00043EA02228A63426C8B6B43EA12628A6381
:103FD000426C91F83C30C2F3074243EA121381F875
:103FE0003C301207120DCA87B0F84420CB8FC2F3C1
:103FF00007221A43CA8790F84400400881F840001D
:1040000081F841406046BDE8F00770479207120D05
:104010000A6190F82C200B6943EA82020A61026B64
:104020000B69120E43EA92130B61C2F3C2030B75C4
:1040300002F007024A75026BC2F3074253098B75FF
:10404000C2F38203CB759207520F0A76028E0B7E63
:10405000C2F3072243EAD2130B760B690F7EBF1C13
:1040600004FA07F85B1C4FEAE879A3FB087A06FB21
:1040700008A803FB09880B7A04FA03F30B65A7FB76
:10408000039A08FB03A307FB0633C1E912930CE76D
:1040900090F82C209206920A0A61026B0B69120EAC
:1040A00043EA02220A61026B0B69C2F307421A4318
:1040B0000A61028E0B69C2F307225B1C46F10007FE
:1040C000FF0447EA5337DB04C1E912374FF40073AA
:1040D0000B65EAE62DE9F34F87B0044600268DF81C
:1040E0001860067700F004FA7620009633463246D0
:1040F0003146CDE90160206808F0EDFD8DF81460CF
:10410000B046206845464746C146416821F4807163
:104110004160206808F0F5FD0120FEF70DF92068E8
:10412000416841F4807141600096694601960296AB
:1041300003964FF480660496206808F0E9FD226833
:104140000023B001516B40F2FF5AC1F3C01104E0EB
:10415000516B401EC1F3C0110FD00029F8D00028C8
:1041600018BFC2F838A008D08DF814309DF814009C
:104170004FF0040B002851D101E00323F4E74FF482
:10418000D570009008200190402002902068694678
:1041900008F0BEFD216829234FF480304A6B12F0ED
:1041A000450218BF01224AB906E04A6B12F04502E7
:1041B00018BF0122401EF6E70028F6D14A6BC2F371
:1041C000800200B11AB10323C1F838B006E0486B91
:1041D00010F0400F02D00023402088638DF8143087
:1041E0009DF8140018B9012020624FF080496946FB
:1041F0000020009037200190206808F089FD3721C9
:10420000204608F00BFE8DF814009DF814000028DD
:1042100004BF49F4801949F000493DD051E03720EE
:104220004FF040080027CDF808806946CDE90070BE
:10423000CDE90376206808F06BFD3721204608F0B1
:10424000EDFD8DF814009DF81400A0BB2920CDF8D9
:104250000090CDE90108CDE903762068694608F0B1
:1042600057FD20680022416B11F0450FFBD0416BD8
:1042700011F0040F0EBFC0F838A00322C0F838B008
:104280008DF814209DF81400A8B92068002108F0CA
:104290001BFDC70F80466D1C1FB94FF6FF7085428E
:1042A000BDD34FF6FF70854206D31B208DF8140056
:1042B0009DF8140007E004E018F0804F1CBF0221B5
:1042C00021629DF814008DF818009DF81800002850
:1042D00040F0DB800127ADF814702068002508F05D
:1042E000EFFC002816BF206A252504287DD04FF05A
:1042F00002014FF000000496CDE900014FF0C0012B
:10430000CDE902102068694608F002FD206800250A
:10431000416B11F0450FFBD0416B11F0040F1CBF36
:104320000325C0F838B002D0002D5ED108E0416B03
:1043300011F0010F1ABF3D468763C0F838A0F3E7BC
:104340002068002108F0C0FCA0630421206808F068
:10435000BBFCE0630821206808F0B6FC20640C2157
:10436000206808F0B1FC6064206A002818BF0128AA
:1043700003D0062818BF022845D14FF00300019052
:104380004FF0400002902068694608F0C1FC2068A8
:1043900000250DF114084FF00309416B11F0450F92
:1043A000FBD0416B11F0040F1CBF0325C0F838B0DF
:1043B00028D1416B11F0010F1CBF3D46876321D10D
:1043C00008F07BFC484517D12068C0F838A00021D0
:1043D000206808F079FC10F4604F04BF000CA8F8C6
:1043E00000000FD010F4005F00E049E018BF132573
:1043F00008D110F4804F01D0102503E010F4004FD5
:1044000018BF0F25E5BB206A042839D0BDF8140079
:10441000694660620004009009200190C02002906B
:10442000206808F075FC20680025416B11F0450FED
:10443000FBD0416B11F0040F1CBF0325C0F838B04E
:1044400001D0EDB908E0416B11F0010F1ABF3D46F4
:104450008763C0F838A0F4E72068002108F034FC36
:10446000A0620421206808F02FFCE0620821206887
:1044700008F02AFC20630C21206808F025FC60630A
:104480008DF818509DF8180020B19DF8180009B05B
:10449000BDE8F08F08992046FFF7BBFC8DF81800A7
:1044A0009DF81800A8B908980021B0F854000496A7
:1044B00000040090072001904020CDE9020120680F
:1044C000694608F025FC0721204608F0A7FC8DF876
:1044D0001800D4E90401A2690292CDE9000194E830
:1044E0000F0008F0F8FB9DF8180009B0BDE8F08F48
:1044F0001E484DF804ED87B0016841F40061016089
:10450000006800F4006005901948016841F48001DA
:104510000160016801F480010591016841F0040126
:104520000160016801F004010591016841F0080192
:1045300001600068694600F0080005904FF4F850EB
:1045400000900220019001200290032003900C2093
:1045500004900848FDF7FCFE0420009006486946D8
:10456000FDF7F6FE07B05DF804FB0000443802409A
:104570003038024000080240000C02402DE9F047AC
:104580008CB0044690460D464FF0000ADDE91467F2
:104590000068C0F82CA0206A022803D10602510A44
:1045A00041EAC35869461020CDE900604020CDE9BA
:1045B000020A00010490206808F0AAFB102120469E
:1045C00008F02CFC00281CBF0CB0BDE8F0874FF0B1
:1045D000FF304FF0020906A9069007FB06F007908E
:1045E0009020CDE908090120CDE90AA0206808F053
:1045F00052FB012F8CBF12201120CDF800800190BA
:104600006946206808F084FB012F24D91221204636
:1046100008F004FC5FEA00081CBF0CB0BDE8F0879E
:104620002068406B10F4957F3BD12068406B10F4FC
:10463000004F18BF002608D0206808F066FB45F838
:104640002600761C082EF7D320352068406B10F426
:10465000957FEAD025E01121204608F0DFFB5FEAD4
:1046600000081CBF0CB0BDE8F0872068406B40F22A
:104670002A4A10EA0A0F14D12068406B10F4004F48
:1046800018BF002608D0206808F03FFB45F8260038
:10469000761C082EF7D320352068406B10EA0A0FED
:1046A000EAD02068406B10F4807F18BF012F09D931
:1046B000206A00281CBF0128022803D1204600F0F0
:1046C0003BF880462168486B10F0080F07D04FF088
:1046D000080088630CB04FF00400BDE8F087486B19
:1046E00010F0020F1FBF4846C1F838900CB0BDE86B
:1046F000F087486B10F0200F08BF4FF0FF360CD04A
:104700004FF0200088630CB04FF00600BDE8F08742
:1047100008F0FBFA761E45F8040B2068416B11F493
:10472000001F18BF002EF3D1216840F2FF508863AC
:104730000CB04046BDE8F08710B50C21044686B0A9
:104740000020CDE900014021CDE9021008010490CC
:104750002068694608F0DCFA0C21204608F05EFB70
:1047600006B010BD2DE9F0470446006A00260D464C
:10477000032888B002BF272008B0BDE8F0870028D2
:104780001CBF012802287CD1B5F5805F08BF272611
:1047900077D037274FF0400800264FF0060AB5F5CE
:1047A000006F4FF4806904D0002D18BF262634D046
:1047B00071E0069600210796206808F085FA10F04F
:1047C000007F01D00E2055E006A9204608F0B2FB7C
:1047D00000284FD1079810F4802F1CD0A08C694678
:1047E000CDE90286CDF810900004CDE900072068DD
:1047F00008F08EFA3721204608F010FBD0BB0220CB
:104800006946CDE9000A206808F082FA06212046B0
:1048100008F004FB2EE025202CE0069600210796E8
:10482000206808F051FA10F0007FCBD106A920468D
:1048300008F080FBF0B9079810F4803FEBD0A08C13
:104840006946CDE90286CDF810900004CDE9000755
:10485000206808F05DFA3721204608F0DFFA48B9F1
:10486000CDE9006A2068694608F052FA0621204620
:1048700008F0D4FA06000ED1D4E90501D4E90223E8
:1048800000E008E0D4F804C00095CDE901012068FB
:10489000614608F020FA08B03046BDE8F0872DE9FF
:1048A000F04F8DB00446002691460D46B2468DF875
:1048B00014600068DDE91678C662206A022803D118
:1048C0000702510A41EAC35969461020CDE9007038
:1048D0004020CDE9020A00010490206808F018FA8F
:1048E0001021204608F09AFA00281CBF0DB0BDE840
:1048F000F08FB8F1010F8CBF19201820CDF800906F
:1049000001906946206808F003FAB8F1010F04D954
:104910001921204608F082FA03E01821204608F009
:104920007DFA00281CBF0DB0BDE8F08F08FB07F929
:104930004FF0FF3006A9CDE906099020CDE9080A1D
:104940000120CDE90AA0206808F0A5F92068B8F197
:10495000010F406B33D910F48D7F65D12068406B17
:1049600010F4804F25D0A9EB0600202828BF00278F
:1049700015D210F0030F0EBF4FEA900A800800F125
:10498000010A0027BAF1000F13D92068294608F060
:10499000CFF92D1D361D7F1CBA45F6D809E02068D9
:1049A00005EB870108F0C4F97F1C082FF7D32035E9
:1049B00020362068406B10F48D7FCFD034E040F279
:1049C0001A4A10EA0A0F2FD12068406B10F4804F6A
:1049D00025D0A9EB0600202828BF002715D210F00B
:1049E000030F0EBF4FEA900B800800F1010B002768
:1049F000BBF1000F13D92068294608F099F92D1D45
:104A0000361D7F1CBB45F6D809E0206805EB870101
:104A100008F08EF97F1C082FF7D320352036206848
:104A2000406B10EA0A0FCFD02068406B10F4807FF3
:104A300018BFB8F1010F08D9206A00281CBF01284F
:104A4000022802D12046FFF777FE2168486B10F05C
:104A5000080F07D04FF0080088630DB04FF0040036
:104A6000BDE8F08F486B10F0020F1FBF0220886373
:104A70000DB0BDE8F08F486B10F0100F14BF102080
:104A800040F2FF5088631EBF05200DB0BDE8F08FD7
:104A900005A9204608F004FB011E03D00DB008460E
:104AA000BDE8F08F9DF81400072818BF0628EFD046
:104AB000F4E7002804BF0120704770B5044690F861
:104AC000450015460E4628B9002084F844002046CB
:104AD00000F01AF8206804F10801FCF78FFAA268C8
:104AE00031462068FCF7C8FAE36A2946D4E9010296
:104AF000FCF760FAA168206850F8212042F001021A
:104B000040F82120002070BD1A484DF804ED87B010
:104B1000016841F001010160006800F001000590AA
:104B20001548016841F008010160016801F00801C1
:104B30000591016841F0100101600068694600F0CC
:104B4000100005904EF2B3700090022001900120F9
:104B50000290032003900C2004900848FDF7F8FB16
:104B60004FF68070009006486946FDF7F1FB07B0EC
:104B70005DF804FB3838024030380240000C024037
:104B8000001002404FF0E021042808690CBF40F0FB
:104B9000040020F00400086170470000401EB0F1DE
:104BA000807F24BF012070474FF0E0214861F02052
:104BB000044A82F8140D0020886107200861002053
:104BC000704700000FE000E070477047002804BF06
:104BD0000120704710B5044690F83900002804BF42
:104BE000204600F00DF8022084F839002068211DCD
:104BF00008F00CFD012084F83900002010BD0000F1
:104C000008B50068A0F18041B1F5806118BF08BD0A
:104C10000948016841F00201016000680322012196
:104C200000F0020000901D20FDF730FFBDE80840B5
:104C30001D20FDF71FBF0000403802400168CA6810
:104C400042F00102CA600068016841F001010160A0
:104C500000207047704770B50446006801694FF046
:104C6000000511F0020F1CBFC16811F0020F13D034
:104C70006FF002010161012020762068806910F048
:104C8000030F204602D0FFF7E5FF04E000F0A6F88E
:104C9000204600F0A4F825762068016911F0040F81
:104CA0001CBFC16811F0040F13D06FF00401016143
:104CB000022020762068806910F4407F204602D0D0
:104CC000FFF7C8FF04E000F089F8204600F087F8FD
:104CD00025762068016911F0080F1CBFC16811F02A
:104CE000080F13D06FF008010161042020762068BE
:104CF000C06910F0030F204602D0FFF7ABFF04E0BD
:104D000000F06CF8204600F06AF82576206801690A
:104D100011F0100F1CBFC16811F0100F13D06FF00D
:104D200010010161082020762068C06910F4407FDE
:104D3000204602D0FFF78EFF04E000F04FF8204637
:104D400000F04DF825762068016911F0010F1CBFB5
:104D5000C16811F0010F05D06FF00101016120461B
:104D600000F03EF8206801696FF0800511F0800FB7
:104D70001CBFC16811F0800F03D005612046FFF70A
:104D800023FF2068016911F4807F1CBFC16811F006
:104D9000800F03D005612046FFF716FF20680169E8
:104DA00011F0400F1CBFC16811F0400F05D06FF02B
:104DB00040010161204600F031F82068016911F0DE
:104DC000200F1ABFC16811F0200F70BD6FF02001D5
:104DD00001612046BDE87040FFF7F7BE704770479D
:104DE0000B49884218BF704710B50CF07FF909488D
:104DF0000068C16911F0080F1CBF082101624FF45F
:104E00007A620549BDE81040024800F069B9000027
:104E10009C27022040120220AC00022070477047FD
:104E200070B501680446C8690A688B6810F00F0FF6
:104E30004FF0200551D040F2011C13EA0C0F7DD039
:104E400010F0010F18BF12F4807F07D04FF0010C53
:104E5000C1F820C0E16E41F00101E16610F0020FDF
:104E600018BF13F0010F08D0D4F800C00221CCF80D
:104E70002010E16E41F00401E16610F0040F18BF4C
:104E800013F0010F08D0D4F800C00421CCF8201092
:104E9000E16E41F00201E16610F0080F0CD002F063
:104EA000200103F00103194306D023680821196289
:104EB000E16E41F00801E166E16E002908BF70BDB6
:104EC00010F0200F1EBF12F0200F204609F09FFBAC
:104ED000E06E10F0080F10D10AE010F0200F18BF9C
:104EE00012F0200F39D02046BDE8704009F08FBB8A
:104EF0002068806810F0400F29D02068016821F4F4
:104F0000907101602068816821F00101816084F85E
:104F10006A502068816811F0400F14D0816821F038
:104F200040018160606E70B12F490165606EFDF7D0
:104F3000F1F9002808BF70BD606E00E00DE0016D62
:104F4000BDE8704008472046FFF769FF70BD204666
:104F5000FFF765FF0020E06670BD10F0800F18BFFE
:104F600012F0800F2FD094F86900212818BF70BD6F
:104F7000B4F85200A0B1A068B0F5805F04BF20690A
:104F80000028E06C16D000F10101E164216800788E
:104F90008862B4F85200A0F10100A4F8520070BD7C
:104FA000086820F0800008602068016841F0400136
:104FB000016070BD0088C0F308008862E06C00F1F9
:104FC0000200E064E5E710F0400F14BF12F0400F5C
:104FD00070BD20460A6822F040020A6084F86950D9
:104FE00000F0E4F870BD0000FBE50008002804BFF5
:104FF0000120704710B5044690F8690028B90020D8
:1050000084F86800204600F029F8242084F869001C
:105010002068016821F001010160204609F038FB99
:10502000012808BF10BD606A00281CBF204609F097
:1050300047FA2068416821F4904141602068816806
:1050400021F02A0181602068016841F001010160BE
:105050002046BDE8104009F0A0BA000010B5006875
:1050600086B0A0F18041B1F588311CBF06B010BDFB
:105070001848016841F001010160006800F001007A
:1050800005901548016841F0100101600068012198
:10509000124C00F0100005904FF4007000900220B8
:1050A000CDE9010103900720694604902046FDF7F1
:1050B0004FF92115204600916946FDF749F9252051
:1050C000FDF7D8FC032225201146FDF7DFFC06B0D2
:1050D00010BD000030380240443802400000024059
:1050E00090F86A30202B49D1002912BF002A0120F4
:1050F000704790F86830012B40D0012380F8683069
:105100004165A0F85820A0F85A20FF228168B1F527
:10511000805F05D07F2351B1B1F1805F0CD012E0E8
:105120000169002908BF40F2FF1102D109E00169BD
:1051300009BBA0F85C2006E00169002918BF3F21E7
:1051400019D0A0F85C100021C166222280F86A20E4
:1051500080F8681001680A6842F480720A60016889
:105160008A6842F001028A600068016841F020010B
:10517000016000207047A0F85C30E4E7022070472F
:1051800008490868C26912F0080F1CBF08220262B1
:105190000868016821F0400101600349012008709E
:1051A0007047000040120220000002207047FEE716
:1051B000114810B586B0016841F0800101600068B7
:1051C00069460E4C00F080000590302000900120D0
:1051D00001900290022003902046FDF7B9F80122C9
:1051E00020462021FDF7DFF9012220461021FDF79E
:1051F000DAF906B010BD000030380240001C024051
:105200002DE9F041374E07460024306820F4406015
:105210003060306830602546002230461021FDF7AE
:10522000C2F9022009F096FF012230461021FDF755
:10523000BAF960062021040E3046FDF7ABF90028CC
:105240001CBF601CC4B2012009F084FF681CC5B2F9
:10525000082DE1D34FF000024FF0100130460FB39C
:10526000FDF7A1F9306820F440603060306840F408
:1052700080603060002230462021FDF794F9022042
:1052800009F068FF012230461021FDF78CF9022059
:1052900009F060FF002230461021FDF784F9204616
:1052A000BDE8F081FDF77FF9306820F440603060A0
:1052B000306840F480603060012230462021FDF7E4
:1052C00072F9022009F046FF012230461021FDF755
:1052D0006AF9022009F03EFF002230461021FDF756
:1052E00062F9DCE7001C024070B51C4E05463046F2
:1052F000316821F440613160316841F4806131608E
:1053000000221021FDF74FF9002415F0800F05D081
:10531000012230462021FDF746F904E00022304604
:105320002021FDF740F96806050E022009F012FF62
:10533000012230461021FDF736F9022009F00AFF5C
:10534000002230461021FDF72EF9022009F002FF5D
:10535000601CC4B2082CD8D370BD0000001C0240F1
:1053600010B5124C206820F440602060206840F4A2
:1053700080602060012220462021FDF714F90122DF
:1053800020461021FDF70FF9042009F0E3FE00226A
:1053900020462021FDF707F9042009F0DBFE00225A
:1053A0002046BDE810401021FDF7FDB8001C02406A
:1053B00010B5124C206820F440602060206840F452
:1053C00080602060002220461021FDF7ECF80022CA
:1053D00020462021FDF7E7F8042009F0BBFE01225A
:1053E00020461021FDF7DFF8012220462021FDF79D
:1053F000DAF8BDE81040042009F0ACBE001C024001
:1054000070B5294D0024286820F440602860286881
:105410002860012220212846FDF7C5F8012009F067
:1054200099FE012228461021FDF7BDF8012009F060
:1054300091FE20212846FDF7ADF800282DD0601CF4
:10544000C4B2FA2C23D9286820F440602860286868
:1054500040F480602860002228461021FDF7A3F860
:10546000002228462021FDF79EF8042009F072FE54
:10547000012228461021FDF796F801222846202116
:10548000FDF791F8042009F065FE012070BD202190
:105490002846FDF77FF80028D1D1002228461021A8
:1054A000FDF781F8002070BD001C02401B4870B55C
:1054B00086B0016841F001010160016801F001015D
:1054C0000591016841F004010160016801F00401E7
:1054D0000591016841F08001016000680325002604
:1054E000694600F08000059002200124CDE9020504
:1054F0000B48CDE90046FCF72BFF60036946CDE978
:1055000000060848CDE90245FCF722FF0C20009078
:1055100005486946FCF71CFF06B070BD30380240F4
:105520000000024000080240001C02402DE9F0414A
:10553000244D0E460024074620466968884795F8A2
:10554000200010F0800F3AD0A889A0F11A03452B53
:105550003CBFE98A5F2903D2192988BF01241BD8DF
:105560007E3845283CBFEA8A5F2A03D2192A88BFC1
:10557000022411D8452B3CBFEA8AEB2A03D2A52A84
:1055800088BF032408D845283CBFE88AEB2816D2F8
:10559000A52888BF042412D9012322463146384663
:1055A0000CF0BAFB95F8200010F0800F07D0696866
:1055B0000020884795F8200010F0800FF7D1204692
:1055C000BDE8F0813400022030B583B048F23040AD
:1055D00000F0BCF8514C642314214CF218651A46B3
:1055E0000846256000F0E4F9652315211A460846AF
:1055F00000F0DEF9F0236422A021142000F0D8F995
:10560000F1236522A121152000F0D2F96423C822DC
:105610001421782000F0CCF96523C92215217920C6
:1056200000F0C6F9F023C822A021782000F0C0F9CC
:10563000F123C922A121792000F0BAF9C8224FF440
:10564000D77314204FF4AF7100F0B2F9C92240F2C1
:10565000AF13152040F25F1100F0AAF9C822142000
:105660004FF40C734FF4F07100F0A2F9C92240F22C
:105670003123152040F2E11100F09AF9162140F291
:105680004223DE2040F2E632009500F0CFFB2025D9
:105690004AF25160206022A001240294CDE9000565
:1056A000C8221E204FF4BE734FF4967107F050FECF
:1056B0001EA040F2B311CDE90005C82202941E20BD
:1056C0004FF4F07307F044FE1AA00294CDE90005F0
:1056D0007323642228211E2007F03AFE17A00294AB
:1056E000CDE900057323C8222821822007F030FE6F
:1056F00014A00294CDE90005EB23F522B921232063
:1057000007F026FE10A00294CDE90005EB23F52258
:10571000B921872007F01CFE03B030BD1400022021
:10572000B4AEBFDABDD3CAD5C1BF0000D7B4CCACCC
:1057300000000000C1ACBDD300000000B2E2C1BF58
:105740000000000045474300505047002DE9F0415C
:10575000104E0746104800243188006820B13846B2
:10576000BDE8F04105F078BD708800FB01F500212F
:10577000084605F0DBFA094930890880002D86BF0C
:10578000B8B20749BDE8F0810880641CA542FBD887
:10579000BDE8F08130130220E8130220FEFF07600D
:1057A000000008602DE9F05F3D4C3E4DA071296876
:1057B00039B105F061FDE88A2080288B6080BDE862
:1057C000F09F37492C232B254FF0F0094FF4305E22
:1057D00049F2413A4FF448764FF02A0C89884FF449
:1057E000A0784FF4F07245F2105B45F2103760B1CB
:1057F000A4F800805145A4F8029018BFB9422ED1F8
:105800002381A4F80AC0A58140E0A4F80090514586
:10581000A4F8028018BFB94209D12381B942A4F883
:105820000AC0A58104BFA4F80080628033E0594516
:105830000AD1A4F808E04FF4285060814FF42C50AE
:10584000A0812280668026E0A1F5C850633822D16D
:1058500023816581A4F80CC0228066801BE0594535
:105860000AD1A4F808E04FF4285060814FF42C507E
:10587000A0812680628009E0A1F5C850633805D177
:105880002381A4F80AC0A58126806280B94204BFA2
:105890002280A4F802800020BDE8F05F05F0B8B8CF
:1058A00030130220E81302202DE9F04F0026824633
:1058B0005F1A3546A2EB00088946B8F1000F83B0A5
:1058C000C8BF012007DC0FBF00204FF0FF30019060
:1058D000C8F1000800D10190002FC8BF012006DCEC
:1058E0000FBF00204FF0FF3000907F4200D10090AA
:1058F000B845CCBF44463C464FF0000B601C52BF3D
:10590000029003B0BDE8F08F1FFA8AF315481FFA22
:1059100089F1006828B114480268184605F0C0FCF7
:105920000AE0184605F002FA104801891048018083
:105930000D481049008808804644A6423D4402DDD7
:105940000198361B8244A54202DD00982D1B81443C
:105950000BF101001FFA80FB02988345D4DD03B0F0
:10596000BDE8F08FE813022014000220301302205B
:10597000FEFF076000000860094A10B5094C126874
:1059800022B12268BDE8104005F08ABC05F0CEF9CE
:105990000548064900890880891C2088088010BDB8
:1059A000E81302201400022030130220FEFF0760DB
:1059B0002DE9F0411C4615460E4607460B46FFF7FB
:1059C00073FF3A46234631461046FFF76DFF2346E4
:1059D0002A4619463846FFF767FF2A4623463146CE
:1059E0001046BDE8F041FFF75FBF00002DE9F04F22
:1059F0000024814615004FF0030085B08846A0EBD7
:105A0000450644BF05B0BDE8F08F6B4FDFF8ACA191
:105A1000DFF8ACB109EB040083B20090A8EB0500FD
:105A2000039081B26748006820B13A68184605F0D3
:105A300037FC09E0184605F079F9BAF80800ABF828
:105A4000000061493888088009EB050083B20190A5
:105A5000A8EB0400029081B25A48006820B13A686D
:105A6000184605F01DFC09E0184605F05FF9BAF884
:105A70000800ABF80000544938880880019883B2C8
:105A800008EB0400019081B24E48006820B13A68EA
:105A9000184605F005FC09E0184605F047F9BAF884
:105AA0000800ABF80000484938880880009883B2A5
:105AB00008EB0500049081B24248006820B13A68C2
:105AC000184605F0EDFB09E0184605F02FF9BAF885
:105AD0000800ABF800003C4938880880A9EB0400B6
